{
  "contractName": "Pixels",
  "abi": [
    {
      "inputs": [],
      "payable": false,
      "stateMutability": "nonpayable",
      "type": "constructor"
    },
    {
      "anonymous": false,
      "inputs": [
        {
          "indexed": false,
          "name": "blockNumber",
          "type": "uint256"
        },
        {
          "indexed": false,
          "name": "owner",
          "type": "address"
        },
        {
          "indexed": false,
          "name": "price",
          "type": "uint256"
        },
        {
          "indexed": false,
          "name": "title",
          "type": "bytes32"
        },
        {
          "indexed": false,
          "name": "url",
          "type": "bytes32"
        },
        {
          "indexed": false,
          "name": "ipfsImageHash",
          "type": "bytes32"
        }
      ],
      "name": "blockBought",
      "type": "event"
    },
    {
      "constant": false,
      "inputs": [
        {
          "name": "amount",
          "type": "uint256"
        }
      ],
      "name": "withdraw",
      "outputs": [],
      "payable": false,
      "stateMutability": "nonpayable",
      "type": "function"
    },
    {
      "constant": true,
      "inputs": [
        {
          "name": "requiredBlock",
          "type": "uint256"
        }
      ],
      "name": "getBlockPrice",
      "outputs": [
        {
          "name": "",
          "type": "uint256"
        }
      ],
      "payable": false,
      "stateMutability": "view",
      "type": "function"
    },
    {
      "constant": false,
      "inputs": [
        {
          "name": "requiredBlocks",
          "type": "uint256[]"
        },
        {
          "name": "title",
          "type": "bytes32"
        },
        {
          "name": "url",
          "type": "bytes32"
        },
        {
          "name": "ipfsImageHashes",
          "type": "bytes32[]"
        }
      ],
      "name": "buyBlocks",
      "outputs": [
        {
          "name": "",
          "type": "uint256"
        }
      ],
      "payable": true,
      "stateMutability": "payable",
      "type": "function"
    }
  ],
  "bytecode": "0x6060604052341561000f57600080fd5b33600160006101000a81548173ffffffffffffffffffffffffffffffffffffffff021916908373ffffffffffffffffffffffffffffffffffffffff1602179055506107c08061005f6000396000f300606060405260043610610057576000357c0100000000000000000000000000000000000000000000000000000000900463ffffffff1680632e1a7d4d1461005c57806373d107961461007f578063fd27d1d3146100e4575b600080fd5b341561006757600080fd5b61007d600480803590602001909190505061011b565b005b6100ce6004808035906020019082018035906020019190919290803560001916906020019091908035600019169060200190919080359060200190820180359060200191909192905050610202565b6040518082815260200191505060405180910390f35b34156100ef57600080fd5b61010560048080359060200190919050506106a8565b6040518082815260200191505060405180910390f35b600160009054906101000a900473ffffffffffffffffffffffffffffffffffffffff1673ffffffffffffffffffffffffffffffffffffffff163373ffffffffffffffffffffffffffffffffffffffff1614151561017757600080fd5b3073ffffffffffffffffffffffffffffffffffffffff1631811115151561019d57600080fd5b600160009054906101000a900473ffffffffffffffffffffffffffffffffffffffff1673ffffffffffffffffffffffffffffffffffffffff166108fc829081150290604051600060405180830381858888f1935050505015156101ff57600080fd5b50565b600080838390508888905014151561021957600080fd5b346102528989808060200260200160405190810160405280939291908181526020018383602002808284378201915050505050506106f4565b1115151561025f57600080fd5b600090505b8787905081101561069d5760008060008a8a85818110151561028257fe5b9050602002013581526020019081526020016000206002015414156102db57662386f26fc100006000808a8a8581811015156102ba57fe5b9050602002013581526020019081526020016000206002018190555061039d565b60008089898481811015156102ec57fe5b90506020020135815260200190815260200160002060030160009054906101000a900473ffffffffffffffffffffffffffffffffffffffff1673ffffffffffffffffffffffffffffffffffffffff166108fc6064605f6000808d8d88818110151561035357fe5b905060200201358152602001908152602001600020600201540281151561037657fe5b049081150290604051600060405180830381858888f19350505050151561039c57600080fd5b5b336000808a8a8581811015156103af57fe5b90506020020135815260200190815260200160002060030160006101000a81548173ffffffffffffffffffffffffffffffffffffffff021916908373ffffffffffffffffffffffffffffffffffffffff160217905550856000808a8a85818110151561041757fe5b9050602002013581526020019081526020016000206000018160001916905550846000808a8a85818110151561044957fe5b9050602002013581526020019081526020016000206001018160001916905550838382818110151561047757fe5b90506020020135600019166000808a8a85818110151561049357fe5b90506020020135815260200190815260200160002060040181600019169055503373ffffffffffffffffffffffffffffffffffffffff166000808a8a8581811015156104db57fe5b90506020020135815260200190815260200160002060030160009054906101000a900473ffffffffffffffffffffffffffffffffffffffff1673ffffffffffffffffffffffffffffffffffffffff1614151561059857600a600f6000808b8b86818110151561054657fe5b905060200201358152602001908152602001600020600201540281151561056957fe5b046000808a8a85818110151561057b57fe5b905060200201358152602001908152602001600020600201819055505b7f15282f4946eb87424e40910d3c0e4ccbf933174db69bd928c0928ba61f83464688888381811015156105c757fe5b90506020020135336000808c8c8781811015156105e057fe5b905060200201358152602001908152602001600020600201548989898988818110151561060957fe5b9050602002013560001916604051808781526020018673ffffffffffffffffffffffffffffffffffffffff1673ffffffffffffffffffffffffffffffffffffffff168152602001858152602001846000191660001916815260200183600019166000191681526020018260001916600019168152602001965050505050505060405180910390a18080600101915050610264565b509695505050505050565b6000806000808481526020019081526020016000206002015414156106d657662386f26fc1000090506106ef565b6000808381526020019081526020016000206002015490505b919050565b6000806000809150600090505b835181101561078a576000806000868481518110151561071d57fe5b906020019060200201518152602001908152602001600020600201541461077057600080858381518110151561074f57fe5b90602001906020020151815260200190815260200160002060020154610779565b662386f26fc100005b820191508080600101915050610701565b81925050509190505600a165627a7a72305820f19a5f1f58a2ca22f5a6b421e48034ed1dc337af71abf01da8de2fd5024474ca0029",
  "source": "pragma solidity ^0.4.17;\n\ncontract Pixels {\n\n\tstruct Block {\n\t\tbytes32 title;\n\t\tbytes32 url;\n\t\tuint price;\n\t\taddress owner;\n\t\tbytes32 ipfsImageHash;\n\t}\n\n\tmapping (uint => Block) allBlocks;\n\n\taddress owner;\n\n\tevent blockBought(uint blockNumber, address owner, uint price, bytes32 title, bytes32 url, bytes32 ipfsImageHash);\n\n\tfunction Pixels () {\n\t\towner = msg.sender;  \n\t}\n\n\n\tmodifier onlyOwner() { \n\t\trequire(msg.sender == owner);\n\t\t_; \n\t}\n\n\n\tfunction withdraw (uint amount) onlyOwner external {\n\t\trequire(amount <= this.balance);\n\t\towner.transfer(amount);\n\t}\n\n\tfunction getBlocksPrice(uint[] requiredBlocks) constant internal returns(uint) {\n\t\tuint amountRequired = 0;\n\t\tfor (uint i = 0; i < requiredBlocks.length; i++)\n\t\t\tamountRequired += allBlocks[requiredBlocks[i]].price == 0 ? 10000000000000000 : allBlocks[requiredBlocks[i]].price;\n\t\treturn amountRequired;\n\t}\n\n\tfunction getBlockPrice(uint requiredBlock) constant public returns(uint) {\n\t\tif(allBlocks[requiredBlock].price == 0)\n\t\t\treturn 10000000000000000;\n\t\treturn allBlocks[requiredBlock].price;\n\t}\n\n\n\tfunction buyBlocks (uint[] requiredBlocks, bytes32 title, bytes32 url, bytes32[] ipfsImageHashes) external payable returns (uint) {\n\t\trequire(requiredBlocks.length == ipfsImageHashes.length);\n\t\trequire(getBlocksPrice(requiredBlocks) <= msg.value);\n\t\tfor (uint i = 0; i < requiredBlocks.length; i++) {\n\t\t\t// First purchase\n\t\t\tif(allBlocks[requiredBlocks[i]].price == 0)\n\t\t\t\tallBlocks[requiredBlocks[i]].price = 10000000000000000; // 0.01 ETH\n\n\t\t\telse\n\t\t\t\tallBlocks[requiredBlocks[i]].owner.transfer(allBlocks[requiredBlocks[i]].price *  95 / 100);\n\n\n\t\t\t// Assign block to buyer\n\t\t\tallBlocks[requiredBlocks[i]].owner = msg.sender;\n\n\t\t\t// Dispatch buying event\n\n\t\t\t// Assign block data to required\n\t\t\tallBlocks[requiredBlocks[i]].title = title;\n\t\t\tallBlocks[requiredBlocks[i]].url = url;\n\t\t\tallBlocks[requiredBlocks[i]].ipfsImageHash = ipfsImageHashes[i];\n\n\t\t\t// Increase price if not self owned\n\t\t\tif (allBlocks[requiredBlocks[i]].owner != msg.sender)\n\t\t\t\tallBlocks[requiredBlocks[i]].price = allBlocks[requiredBlocks[i]].price * 15 / 10;\n\t\t\t\n\t\t\tblockBought(requiredBlocks[i], msg.sender, allBlocks[requiredBlocks[i]].price, title, url, ipfsImageHashes[i]);\n\t\t}\n\t}\n}\n\n",
  "sourcePath": "/var/www/pixels/contracts/Pixels.sol",
  "compiler": {
    "name": "solc",
    "version": "0.4.19+commit.c4cbbb05.Emscripten.clang"
  },
  "schemaVersion": "1.0.1",
  "updatedAt": "2018-02-13T17:55:58.523Z"
}